:10100900D3EF9400EE940040147D6E7C00ED1D70CA
:0D101900011CED4C70F7EF1F70E61E80E328
:0110260022A7
:10107900D3EF9400EE9400400F7DC77C01DCFEDDC8
:08108900FAEF1F70EB1E80E876
:01109100223C
:0B112500EF1FAC0670011E4C70F6229C
:10110000C2B77F46AE071FEE70FAD2B77F057E00EA
:03111000021009C1
:100F6200E4FBFAC2B7055DE55D7002055CEF139222
:100F7200B7755C00755D06E55D155DAC5C700215CC
:100F82005C4C70F3D2B7EFC313FF0BBB00010AEB4B
:050F920064084A70CE66
:010F97002237
:100EEA007D087C00C2B70FBF0000D2B70FBF000059
:100EFA000FBF0000A2B7E433C43333335480FBE995
:100F0A00C3134BF97E007F04EF1FAA0670011E4A25
:0D0F1A0070F6ED1D70011CED4C70C9AF01AB
:010F270022A7
:1010D8001211007F017E001210097FCC120F627F6F
:0410E80044020F624D
:1010EC001211007F017E001210097FCC120F627F5B
:0410FC00BE020F62BF
:1010AB00E4FFFE1210D81210EC120EEA8F5B120E38
:0610BB00EAEFFEE55BFF19
:0110C100220C
:100FC30041542B4349504D55583D310D0A0041546E
:100FD3002B4349505345525645523D312C383038F6
:040FE300300D0A00C3
:0A0E58000358FF0FC30355FF0FD12D
:10102700120ABD6010F5993099FDC299740129F92A
:0C103700E43AFA80EB7F2C7E01021009E5
:10111300AB58AA59A95A121027AB55AA56A9570278
:02112300102793
:1010C200758920758DF3758BF3758780759850D26D
:0610D200AFD2ACD28E2269
:081139001210C2C29902111349
:10104300C2A7C2A6C2A58F807F017E00121079D2EB
:0B105300A77F057E00121079C2A722C3
:10105E00C2A7D2A6C2A58F807F017E00121079D2C0
:0B106E00A77F057E00121079C2A722A8
:101092007F381210437F0C1210437F061210437FD9
:0910A200011210437F800210438B
:020DEF008F5B18
:100DF100E55B6401706075A0FE7F907E01121009B1
:100E0100E4F55CAFA07801EF08800123D8FDF5A0DF
:100E1100E55B6401600280267F907E011210090566
:100E21005CE55CC3940740DBE4F55CAFA07801EFBF
:100E310008800103D8FDF5A0E55B64016005755CE0
:100E41000780107F907E01121009055CE55CC39458
:060E51000740D875A0FF68
:010E57002278
:07114100BF010375A00022AD
:100FE700755B27755C10BF0118E55C155CAE5B701F
:100FF70002155B4E600BB2957F0A7E0012112580A9
:01100700E800
:0110080022C5
:09113000EF70037F01227F002211
:100F280041542B43495053544152543D302C225480
:100F38004350222C223139322E3136382E342E327B
:100F4800222C353030300D0A0041542B4349505380
:0A0F5800454E443D302C360D0A00D2
:100E620014192054656D702020200000000000003D
:100E7200000000000000014B00014C000309FF0FBD
:100E820028030CFF0F51014D00014E00014F0001DC
:100E920050000151000152000153000154000108A9
:010EA200004F
:030F9800BF01276F
:100F9B00AB09AA0AA90B121027AB0CAA0DA90E12AA
:100FAB00102775150D75160A7B007A00790F8B5B70
:070FBB008A5C895D1210271A
:010FC200220C
:040C9300AB07AA06FB
:100C9700C3EA64809480501375212D85210FEB1BC7
:100CA70070011A6303FF6302FF800675212B8521FC
:100CB7000FAD03AC02EC120A038F5E8E5D8D5C8C68
:100CC7005BE4FFFE7DC87C40AB5EAA5DA95CA85BC8
:100CD7001208F8E4FBFAF9783F120807120A3CAA4F
:100CE70006AB077C277D10AF03AE02120AD67E0340
:100CF7007FE8CFCDCFCECCCE120AD6EF2430F52267
:100D0700F5107C037DE8AF03AE02120AD67E007FA2
:100D170064CFCDCFCECCCE120AD6EF2430F523F553
:100D27001175242E8524127C007D64AF03AE021258
:100D37000AD67E007F0ACFCDCFCECCCE120AD6EF11
:100D47002430F525F513AE02AF037C007D0A120AA5
:0B0D5700D6ED2430F526F51475274377
:010D6200226E
:100EA4001211391210921210AB120C93E4F54B7418
:100EB40019254BF8E6FF12105E7F057E001210091B
:100EC400054BE54BC3940F40E67FE87E03121009FF
:100ED400AF4D120F98AF4E120FE7AF4F121141AF43
:060EE40050120DEF80BD6D
:03002300020B6F5E
:100B6F00C0E0C0F0C083C082C0D075D000C000C04C
:100B7F0001C002C003C004C005C006C0072098030F
:100B8F00020C78C298742D254CF8A699E52DB42B3C
:100B9F0004054C8003754C00E54C640A6003020C9D
:100BAF0078F54CE53624CFB409004003020C789059
:100BBF000BCC75F003A4C58325F0C58373020BE737
:100BCF00020BF1020BFA020C03020C16020C2A02A2
:100BDF000C3E020C52020C66AF4D1211308F4D02BB
:100BEF000C78AF4E1211308F4E807EAF4F121130F6
:100BFF008F4F8007AF501211308F50D2A4D2A3D293
:100C0F00A2D2A1D2A08062AF511211308F51E55103
:100C1F00B40104C2A48052D2A4804EAF521211303C
:100C2F008F52E552B40104C2A3803ED2A3803AAFE3
:100C3F00531211308F53E553B40104C2A2802AD24C
:100C4F00A28026AF541211308F54E554B40104C260
:100C5F00A18016D2A18012AF081211308F08E508BB
:100C6F00B40104C2A08002D2A0D007D006D005D014
:100C7F0004D003D002D001D000D0D0D082D083D006
:040C8F00F0D0E0328F
:10080000020AA8E86480F8E933E83360110460F074
:10081000ED33EC337009E8FCE9FDEAFEEBFF22045E
:1008200060DED3EB9FEA9EE99DE8C2E78CF0C2F759
:1008300095F0400CE8CCF8E9CDF9EACEFAEBCFFB25
:10084000120A7385D0F05804700320D5B3E8047001
:10085000075002B2D5020AB292D5EC0460F7E4CC9C
:10086000C0E0C398F8603B94186008400DD0E0FBEE
:10087000020A8AE4FBFAC9FC8028E830E406E4C9ED
:10088000FBE4CAFCE830E305E4C9CACBFCE8540742
:100890006010F8C3E913F9EA13FAEB13FBEC13FC4D
:1008A000D8F130F52FC3E49CFCEF9BFFEE9AFEEDF0
:1008B00099FDD0E0FBEF4E4D4C701222DB03020A93
:1008C000AFEC2CFCEF33FFEE33FEED33FDED30E704
:1008D000EB020A8AEF2BFFEE3AFEED39FDD0E0FB8A
:1008E00050130BBB0003020AB2ED13FDEE13FEEF33
:0808F00013FFEC13FC020A8A5D
:1008F800EC4D6011E8497017ED33EC3304600DE4FA
:10090800FCFFFEFD22E933E8330470F8020AA8125E
:100918000A7358046009E4CC24815006285009025F
:100928000AB2284003020AAFC0E0EB4A7044B9801B
:1009380006D0E0FB020A9EEF4E701CBD8008EBFF5C
:10094800EAFEE9FD80EBE98DF0A4FEE5F00209E19D
:10095800E9CDF9EAFEEBFFEF89F0A4FCE5F0CE89DA
:10096800F0A42EFFE435F0CD89F0A42DFEE435F097
:100978008067EF4E7005BD80D780C3EF8BF0A4ACC5
:10098800F0EE8BF0A42CFCE435F0F8EF8AF0A42C00
:10099800E5F038FCE433CB8DF0A42CFCE5F03BF813
:1009A800EE8AF0A42CFCE5F038F8E433CF89F0A403
:1009B8002CFCE5F038CF3400CE89F0A42FFFE5F009
:1009C8003EFEE433C98DF0A42EFEE5F039CD8AF061
:1009D800A42FFFE5F03EFEE43DFD33D0E0FB5007D9
:1009E8000BBB000F020AB2EC2CFCEF33FFEE33FE18
:0609F800ED33FD020A8A46
:1009FE0075F020800E75F010800575F0087D007E74
:100A0E00007F003392D530D503120B0CEC3340101F
:100A1E00EF33FFEE33FEED33FDEC33FCD5F0ED227C
:0E0A2E00E5F0247EA2D513CC92E7CDCEFF22B8
:100A3C00EDD2E7CD33EC3392D524814006E4FFFEB2
:100A4C00FDFC22FCE4CFCECDCC24E0501174FF8011
:100A5C00EDC3CC13CCCD13CDCE13CECF13CF0470AE
:070A6C00F030D5DE020B0C97
:100A7300E9D2E7C933E833F892D5EDD2E7CD33ECC9
:070A830033FC5002B2D52242
:100A8A00EC30E7100FBF000C0EBE00080DBD0004CD
:100A9A000BEB6014A2D5EB13FCED92E7FD2274FF79
:100AAA00FCFDFEFF22E480F8A2D574FF13FC7D80D2
:030ABA00E480EFE6
:03000000020D638B
:0C0D6300787FE4F6D8FD75815E020DAAD1
:100ABD00BB010689828A83E0225002E722BBFE0237
:090ACD00E32289828A83E493226A
:100AD600C2D5EC30E709B2D5E4C39DFDE49CFCEE3B
:100AE60030E715B2D5E4C39FFFE49EFE120B1AC38E
:100AF600E49DFDE49CFC8003120B1A30D507C3E489
:060B06009FFFE49EFE22A9
:0E0B0C00C3E49FFFE49EFEE49DFDE49CFC22FA
:100D6F00020EA4E493A3F8E493A34003F68001F2E8
:100D7F0008DFF48029E493A3F85407240CC8C33385
:100D8F00C4540F4420C8834004F456800146F6DF54
:100D9F00E4800B0102040810204080900E58E47E7E
:100DAF00019360BCA3FF543F30E509541FFEE49349
:100DBF00A360010ECF54C025E060A840B8E493A310
:100DCF00FAE493A3F8E493A3C8C582C8CAC583CA3B
:100DDF00F0A3C8C582C8CAC583CADFE9DEE780BEF3
:010EA300004E
:100B1A00BC000BBE0029EF8DF084FFADF022E4CCBF
:100B2A00F875F008EF2FFFEE33FEEC33FCEE9DEC88
:100B3A00984005FCEE9DFE0FD5F0E9E4CEFD22EDCE
:100B4A00F8F5F0EE8420D21CFEADF075F008EF2F18
:100B5A00FFED33FD4007985006D5F0F222C398FD09
:050B6A000FD5F0EA22A6
:00000001FF
